:100000000C9461000C947E000C947E000C947E0095
:100010000C947E000C947E000C947E000C947E0068
:100020000C947E000C947E000C947E000C947E0058
:100030000C947E000C947E000C947E000C947E0048
:100040000C943E010C947E000C947E000C947E0077
:100050000C947E000C947E000C947E000C947E0028
:100060000C947E000C947E00000000002400270009
:100070002A0000000000250028002B0000000000DE
:1000800023002600290004040404040404040202DA
:100090000202020203030303030301020408102007
:1000A0004080010204081020010204081020000012
:1000B0000008000201000003040700000000000027
:1000C000000011241FBECFEFD8E0DEBFCDBF11E08E
:1000D000A0E0B1E0E4E7FBE002C005900D92A8309B
:1000E000B107D9F721E0A8E0B1E001C01D92A1322B
:1000F000B207E1F70E9488010C94B8050C94000047
:10010000833081F028F4813099F08230A1F0089595
:100110008730A9F08830B9F08430D1F48091800024
:100120008F7D03C0809180008F7780938000089539
:1001300084B58F7702C084B58F7D84BD089580918A
:10014000B0008F7703C08091B0008F7D8093B000A6
:100150000895CF93DF93282F30E0F901E255FF4F48
:100160008491F901E656FF4FD491F901EA57FF4F08
:10017000C491CC2391F081110E948000EC2FF0E01B
:10018000EE0FFF1FE458FF4FA591B491EC91ED23C2
:1001900081E090E021F480E002C080E090E0DF9117
:1001A000CF9108951F93CF93DF93282F30E0F9016B
:1001B000E255FF4F8491F901E656FF4FD491F901C2
:1001C000EA57FF4FC491CC23C9F0162F81110E942A
:1001D0008000EC2FF0E0EE0FFF1FEE58FF4FA591CF
:1001E000B4918FB7F894111105C09C91ED2FE09553
:1001F000E92302C0EC91ED2BEC938FBFDF91CF91FF
:100200001F910895CF93DF9390E0FC01E656FF4FD6
:100210002491FC01EA57FF4F8491882361F190E01B
:10022000880F991FFC01E859FF4FC591D491FC013B
:10023000EE58FF4FA591B491611109C09FB7F89492
:100240008881209582238883EC912E230BC0623015
:1002500061F49FB7F8943881822F80958323888337
:10026000EC912E2B2C939FBF06C08FB7F894E8819A
:100270002E2B28838FBFDF91CF9108951F920F926D
:100280000FB60F9211242F933F938F939F93AF93A9
:10029000BF9380911D0190911E01A0911F01B0910B
:1002A000200130911C0123E0230F2D3720F401960B
:1002B000A11DB11D05C026E8230F0296A11DB11D89
:1002C00020931C0180931D0190931E01A0931F0198
:1002D000B09320018091180190911901A0911A0109
:1002E000B0911B010196A11DB11D8093180190933F
:1002F0001901A0931A01B0931B01BF91AF919F9177
:100300008F913F912F910F900FBE0F901F901895D6
:10031000789484B5826084BD84B5816084BD85B5E0
:10032000826085BD85B5816085BD80916E008160EC
:1003300080936E0010928100809181008260809392
:100340008100809181008160809381008091800094
:100350008160809380008091B10084608093B100BF
:100360008091B00081608093B00080917A008460B9
:1003700080937A0080917A00826080937A008091E5
:100380007A00816080937A0080917A0080688093FF
:100390007A001092C10061E08DE00E94020161E0EC
:1003A0008CE00E94020161E08BE00E94020161E0AA
:1003B0008AE00E94020161E089E00E94020161E09E
:1003C00088E00E94020161E087E00E94020161E092
:1003D00086E00E94020161E085E00E94020161E086
:1003E00084E00E94020161E083E00E94020161E07A
:1003F00082E00E94020160E08FE00E94020198E02A
:10040000492E512C01E010E024E0E22EF12C3CE0DA
:10041000632E712C49E0C42ED12C56E0A52EB12CB0
:100420006BE0862E912C80E0282E80E0382EC09143
:100430000601D0910701C130D10531F461E08DE0B2
:100440000E94D20060E008C0C230D10589F560E0AA
:100450008DE00E94D20061E08CE00E94D20060E05A
:100460008BE00E94D20060E08AE00E94D20060E04F
:1004700089E00E94D20060E088E00E94D20060E043
:1004800087E00E94D20060E086E00E94D20060E037
:1004900085E00E94D20060E084E00E94D20060E02B
:1004A00083E00E94D20060E082E00E94D2009CC003
:1004B000C330D10589F560E08DE00E94D20060E094
:1004C0008CE00E94D20061E08BE00E94D20060E0EC
:1004D0008AE00E94D20060E089E00E94D20060E0E1
:1004E00088E00E94D20060E087E00E94D20060E0D5
:1004F00086E00E94D20060E085E00E94D20060E0C9
:1005000084E00E94D20060E083E00E94D20060E0BC
:1005100082E00E94D2009CC0C430D10589F560E021
:100520008DE00E94D20060E08CE00E94D20060E08A
:100530008BE00E94D20061E08AE00E94D20060E07D
:1005400089E00E94D20060E088E00E94D20060E072
:1005500087E00E94D20060E086E00E94D20060E066
:1005600085E00E94D20060E084E00E94D20060E05A
:1005700083E00E94D20060E082E00E94D2009CC032
:10058000C530D10589F560E08DE00E94D20060E0C1
:100590008CE00E94D20060E08BE00E94D20060E01C
:1005A0008AE00E94D20061E089E00E94D20060E00F
:1005B00088E00E94D20060E087E00E94D20060E004
:1005C00086E00E94D20060E085E00E94D20060E0F8
:1005D00084E00E94D20060E083E00E94D20060E0EC
:1005E00082E00E94D200B6C0C630D10589F560E035
:1005F0008DE00E94D20060E08CE00E94D20060E0BA
:100600008BE00E94D20060E08AE00E94D20060E0AD
:1006100089E00E94D20061E088E00E94D20060E0A0
:1006200087E00E94D20060E086E00E94D20060E095
:1006300085E00E94D20060E084E00E94D20060E089
:1006400083E00E94D20060E082E00E94D200AFC04E
:10065000C730D10589F560E08DE00E94D20060E0EE
:100660008CE00E94D20060E08BE00E94D20060E04B
:100670008AE00E94D20060E089E00E94D20060E03F
:1006800088E00E94D20061E087E00E94D20060E032
:1006900086E00E94D20060E085E00E94D20060E027
:1006A00084E00E94D20060E083E00E94D20060E01B
:1006B00082E00E94D200ACC0C830D10511F560E0E4
:1006C0008DE00E94D20060E08CE00E94D20060E0E9
:1006D0008BE00E94D20060E08AE00E94D20060E0DD
:1006E00089E00E94D20060E088E00E94D20060E0D1
:1006F00087E00E94D20061E086E00E94D20060E0C4
:1007000024C0C930D10531F560E08DE00E94D200EF
:1007100060E08CE00E94D20060E08BE00E94D2009A
:1007200060E08AE00E94D20060E089E00E94D2008E
:1007300060E088E00E94D20060E087E00E94D20082
:1007400060E086E00E94D20061E085E00E94D20075
:1007500060E028C0CA30D10551F560E08DE00E940C
:10076000D20060E08CE00E94D20060E08BE00E944A
:10077000D20060E08AE00E94D20060E089E00E943E
:10078000D20060E088E00E94D20060E087E00E9432
:10079000D20060E086E00E94D20060E085E00E9426
:1007A000D20061E084E00E94D20060E02CC0CB3037
:1007B000D10571F560E08DE00E94D20060E08CE030
:1007C0000E94D20060E08BE00E94D20060E08AE0EC
:1007D0000E94D20060E089E00E94D20060E088E0E0
:1007E0000E94D20060E087E00E94D20060E086E0D4
:1007F0000E94D20060E085E00E94D20060E084E0C8
:100800000E94D20061E083E00E94D20060E02FC02D
:100810002C9781F560E08DE00E94D20060E08CE0D2
:100820000E94D20060E08BE00E94D20060E08AE08B
:100830000E94D20060E089E00E94D20060E088E07F
:100840000E94D20060E087E00E94D20060E086E073
:100850000E94D20060E085E00E94D20060E084E067
:100860000E94D20060E083E00E94D20061E082E05A
:100870000E94D2008FE00E94A9008130910529F4E6
:10088000909317018093160104C0109217011092E3
:10089000160181E10E94A9008130910529F490930D
:1008A00015018093140104C01092150110921401D7
:1008B00083E10E94A9008130910529F490931301EE
:1008C0008093120104C0109213011092120127E4C8
:1008D00020937C0080917A00806480937A008091DC
:1008E0007A0086FDFCCF809178002091790090E01D
:1008F000922B853F91402CF0109311010093100131
:1009000004C0109211011092100180911601909173
:10091000170120910E0130910F0182179307B9F052
:100920002091040130910501A90141505109423043
:10093000510568F48130910531F42F5F3F4F3093BA
:1009400005012093040190930F0180930E012091E3
:100950000E0130910F0182179307E1F020910401FD
:100960003091050123303105A9F48130910571F4EE
:10097000F0920501E09204012091020130910301FF
:100980002F5F3F4F309303012093020190930F019B
:1009900080930E01809114019091150120910C011A
:1009A00030910D018217930789F08130910551F440
:1009B00020910201309103012F5F3F4F30930301DB
:1009C0002093020190930D0180930C01809102010C
:1009D00090910301059724F0109303010093020105
:1009E000809112019091130120910A0130910B0125
:1009F0008217930789F08130910551F42091040109
:100A0000309105012F5F3F4F309305012093040182
:100A100090930B0180930A0180910401909105014C
:100A2000049724F0109305010093040180910401C0
:100A3000909105018130910561F4809102019091BE
:100A4000030181309105F1F4909307018093060131
:100A500020C08230910509F066C0209102013091DA
:100A600003012130310521F49093070180930601A1
:100A700022303105C1F485E090E090930701809326
:100A8000060111C08230910521F4F0920701E09235
:100A900006018330910579F427E030E030930701B7
:100AA0002093060108C02330310571F450920701EC
:100AB0004092060109C0049771F48AE090E0909397
:100AC00007018093060107C02430310521F490927C
:100AD00007018092060180911001909111018130EF
:100AE000910561F4909305018093040190930301B3
:100AF000809302019093090180930801809106017F
:100B0000909107019093010180930001409724F098
:100B100010930701009306012114310409F487CCD6
:100B20000E94000080CC83309105A9F6209102013B
:100B3000309103012130310521F490930701809316
:100B400006012230310521F4B0920701A09206017E
:100B50002330310521F4D0920701C09206012430E0
:100B6000310509F0B8CF7092070160920601B3CF4A
:040B7000F894FFCF27
:080B7400010001000100010075
:107800000C94343C0C94513C0C94513C0C94513CE1
:107810000C94513C0C94513C0C94513C0C94513CB4
:107820000C94513C0C94513C0C94513C0C94513CA4
:107830000C94513C0C94513C0C94513C0C94513C94
:107840000C94513C0C94513C0C94513C0C94513C84
:107850000C94513C0C94513C0C94513C0C94513C74
:107860000C94513C0C94513C11241FBECFEFD8E036
:10787000DEBFCDBF11E0A0E0B1E0ECE9FFE702C060
:1078800005900D92A230B107D9F712E0A2E0B1E065
:1078900001C01D92AD30B107E1F70E942D3D0C945F
:1078A000CC3F0C94003C982F959595959595959582
:1078B000905D8F708A307CF0282F295A8091C0000B
:1078C00085FFFCCF9093C6008091C00085FFFCCF60
:1078D0002093C6000895282F205DF0CF982F809127
:1078E000C00085FFFCCF9093C6000895EF92FF92F1
:1078F0000F931F93EE24FF2487018091C00087FD22
:1079000017C00894E11CF11C011D111D81E4E8164B
:1079100082E4F8068FE0080780E0180770F3E09132
:107920000401F091050109958091C00087FFE9CF1E
:107930008091C6001F910F91FF90EF9008950E94D3
:10794000763C982F8091C00085FFFCCF9093C600B5
:1079500091362CF490330CF09053892F089597555D
:10796000892F08951F930E949F3C182F0E949F3CCF
:107970001295107F810F1F9108951F93182F882350
:1079800021F00E94763C1150E1F71F9108951F935A
:10799000182F0E94763C803249F0809103018F5F5E
:1079A000809303018530C1F01F9108958091C0003C
:1079B00085FFFCCF84E18093C6008091C00085FFE5
:1079C000FCCF1093C6008091C00085FFFCCF80E102
:1079D0008093C6001F910895E0910401F091050184
:1079E00009951F9108950E94763C803241F0809164
:1079F00003018F5F80930301853081F008958091AA
:107A0000C00085FFFCCF84E18093C6008091C00058
:107A100085FFFCCF80E18093C6000895E0910401CA
:107A2000F09105010995089540E951E08823A1F0FE
:107A30002D9A28EE33E0FA013197F1F721503040CA
:107A4000D1F72D9828EE33E0FA013197F1F7215064
:107A50003040D1F7815061F708953F924F925F9285
:107A60006F927F928F929F92AF92BF92CF92DF924E
:107A7000EF92FF920F931F93CF93DF93000080E16B
:107A80008093C4001092C50088E18093C10086E015
:107A90008093C2005098589A259A81E00E94143D24
:107AA00024E1F22E9EE1E92E85E9D82E0FE0C02ECA
:107AB00010E1B12EAA24A394B1E49B2EA6E58A2E50
:107AC000F2E57F2EE0E26E2E79E4572E63E5462E36
:107AD00050E5352E0E94763C8033B1F18133B9F107
:107AE000803409F46FC0813409F476C0823409F41B
:107AF00085C0853409F488C0803531F1823521F1A3
:107B0000813511F1853509F485C0863509F48DC0BC
:107B1000843609F496C0843709F403C1853709F423
:107B200072C1863709F466C0809103018F5F80932C
:107B30000301853079F6E0910401F0910501099582
:107B40000E94763C803351F60E94F33CC3CF0E94E2
:107B5000763C803249F78091C00085FFFCCFF092DF
:107B6000C6008091C00085FFFCCF9092C600809136
:107B7000C00085FFFCCF8092C6008091C00085FFC9
:107B8000FCCF7092C6008091C00085FFFCCF609250
:107B9000C6008091C00085FFFCCF5092C600809146
:107BA000C00085FFFCCF4092C6008091C00085FFD9
:107BB000FCCF3092C6008091C00085FFFCCFB09210
:107BC000C60088CF0E94763C863808F4BDCF0E945C
:107BD000763C0E94F33C7ECF0E94763C803809F4CC
:107BE0009CC0813809F40BC1823809F43CC1883942
:107BF00009F48FC080E00E94C73C6CCF84E10E94F2
:107C0000BD3C0E94F33C66CF85E00E94BD3C0E94D3
:107C1000F33C60CF0E94763C809306010E94763C44
:107C2000809307010E94F33C55CF0E94763C80333D
:107C300009F41DC183E00E94BD3C80E00E94C73C66
:107C400049CF0E94763C809309020E94763C809343
:107C5000080280910C028E7F80930C020E94763C79
:107C6000853409F415C18091080290910902892B8D
:107C700089F000E010E00E94763CF801E85FFE4FDA
:107C800080830F5F1F4F80910802909109020817AF
:107C9000190788F30E94763C803209F045CF809125
:107CA0000C0280FF01C16091060170910701660F0F
:107CB000771F7093070160930601A0910802B091AD
:107CC00009021097C9F0E8E0F1E09B01AD014E0F09
:107CD0005F1FF999FECF32BD21BD819180BDFA9A17
:107CE000F99A2F5F3F4FE417F50799F76A0F7B1F4B
:107CF00070930701609306018091C00085FFFCCF5F
:107D0000F092C6008091C00085FFFCCFB092C60003
:107D1000E1CE83E00E94C73CDDCE82E00E94C73CFA
:107D2000D9CE0E94763C809309020E94763C8093D3
:107D300008028091060190910701880F991F909386
:107D40000701809306010E94763C853409F4A6C0A1
:107D500080910C028E7F80930C020E94763C8032D0
:107D600009F0B8CE8091C00085FFFCCFF092C6002C
:107D7000609108027091090261157105B9F140E046
:107D800050E080910C02A82FA170B82FB27011C0E2
:107D9000BB2309F45CC0E0910601F0910701319624
:107DA000F0930701E09306014F5F5F4F46175707B7
:107DB000E8F4AA2369F3F999FECF209106013091E6
:107DC000070132BD21BDF89A90B58091C00085FFB2
:107DD000FCCF9093C6002F5F3F4F30930701209355
:107DE00006014F5F5F4F4617570718F38091C00099
:107DF00085FDE5CE8091C00085FFF8CFE0CE81E023
:107E00000E94C73C67CE0E94763C803209F08CCE3F
:107E10008091C00085FFFCCFF092C6008091C00029
:107E200085FFFCCFE092C6008091C00085FFFCCFAB
:107E3000D092C6008091C00085FFFCCFC092C600E2
:107E40008091C00085FFFCCFB092C60043CEE09188
:107E50000601F091070194918091C00085FFFCCF4D
:107E60009093C6009CCF80E10E94C73C33CE0E9415
:107E7000763C0E94763C182F0E94763C112309F430
:107E800083C0113009F484C08FE00E94C73C22CE29
:107E900080910C02816080930C02E5CE80910C02EF
:107EA000816080930C0259CF809107018823880F4D
:107EB000880B8A2180930B02809106019091070123
:107EC000880F991F90930701809306018091080203
:107ED00080FF09C080910802909109020196909359
:107EE000090280930802F894F999FECF1127E091D6
:107EF0000601F0910701C8E0D1E08091080290915D
:107F00000902103091F40091570001700130D9F34B
:107F100003E000935700E89500915700017001308D
:107F2000D9F301E100935700E89509901990009169
:107F3000570001700130D9F301E000935700E89534
:107F40001395103498F011270091570001700130FB
:107F5000D9F305E000935700E895009157000170B0
:107F60000130D9F301E100935700E895329602976A
:107F700009F0C7CF103011F00296E5CF112480919F
:107F8000C00085FFB9CEBCCE8EE10E94C73CA2CD19
:0C7F900085E90E94C73C9ECDF894FFCF0D
:027F9C00800063
:040000030000780081
:00000001FF
