:100000000C9462000C948A000C948A000C948A0070
:100010000C948A000C948A000C948A000C948A0038
:100020000C948A000C948A000C948A000C948A0028
:100030000C948A000C948A000C948A000C948A0018
:100040000C94B5030C948A000C9483030C945D0308
:100050000C948A000C948A000C948A000C948A00F8
:100060000C948A000C948A000000000024002700F1
:100070002A0000000000250028002B0000000000DE
:1000800023002600290004040404040404040202DA
:100090000202020203030303030301020408102007
:1000A0004080010204081020010204081020000012
:1000B0000008000201000003040700000000000027
:1000C0000000300C11241FBECFEFD8E0DEBFCDBF43
:1000D00011E0A0E0B1E0E8E1F9E102C005900D9285
:1000E000A032B107D9F721E0A0E2B1E001C01D9232
:1000F000A83DB207E1F710E0C2E6D0E004C02197C6
:10010000FE010E947F0CC136D107C9F70E94FF0390
:100110000C948A0C0C940000CF92DF92EF92FF9225
:100120000F931F93CF93DF936C017A018B01C0E093
:10013000D0E0CE15DF0589F0D8016D918D01D60193
:10014000ED91FC910190F081E02DC6010995892B7C
:1001500011F47E0102C02196ECCFC701DF91CF914F
:100160001F910F91FF90EF90DF90CF900895089529
:1001700080E090E00895FC01538D448D252F30E000
:10018000842F90E0821B930B541710F0CF960895A4
:1001900001970895FC01918D828D981761F0828DF1
:1001A000DF01A80FB11D5D968C91928D9F5F9F73AB
:1001B000928F90E008958FEF9FEF0895FC01918D4D
:1001C000828D981731F0828DE80FF11D858D90E0BA
:1001D00008958FEF9FEF0895FC01918D228D892F57
:1001E00090E0805C9F4F821B91098F73992708953F
:1001F0008BE391E00E94EC0021E0892B09F420E0E0
:10020000822F0895FC01848DDF01A80FB11DA35A30
:10021000BF4F2C91848D90E001968F739927848F26
:10022000A689B7892C93A089B1898C9180648C931D
:10023000938D848D981306C00288F389E02D808108
:100240008F7D80830895EF92FF920F931F93CF933A
:10025000DF93EC0181E0888F9B8D8C8D981305C016
:10026000E889F989808185FD24C0F62E0B8D10E088
:100270000F5F1F4F0F731127E02E8C8DE8120CC0FB
:100280000FB607FCFACFE889F989808185FFF5CFA1
:10029000CE010E940201F1CF8B8DFE01E80FF11D0E
:1002A000E35AFF4FF0820B8FEA89FB8980818062DD
:1002B00007C0EE89FF896083E889F98980818064BD
:1002C000808381E090E0DF91CF911F910F91FF90AB
:1002D000EF900895CF93DF93EC01888D8823C9F0C8
:1002E000EA89FB89808185FD05C0A889B9898C913F
:1002F00086FD0FC00FB607FCF5CF808185FFF2CFDA
:10030000A889B9898C9185FFEDCFCE010E940201A9
:10031000E7CFDF91CF91089580E090E0892B29F01D
:100320000E94F80081110C9400000895833081F040
:1003300028F4813099F08230A1F008958730A9F037
:100340008830B9F08430D1F4809180008F7D03C073
:10035000809180008F7780938000089584B58F7797
:1003600002C084B58F7D84BD08958091B0008F77E1
:1003700003C08091B0008F7D8093B0000895CF932B
:10038000DF93282F30E0F901E255FF4F8491F90106
:10039000E656FF4FD491F901EA57FF4FC491CC23A1
:1003A00091F081110E949601EC2FF0E0EE0FFF1FFB
:1003B000E458FF4FA591B491EC91ED2381E090E0DA
:1003C00021F480E002C080E090E0DF91CF910895B9
:1003D0001F93CF93DF93282F30E0F901E255FF4FB1
:1003E0008491F901E656FF4FD491F901EA57FF4F86
:1003F000C491CC23C9F0162F81110E949601EC2FD5
:10040000F0E0EE0FFF1FEE58FF4FA591B4918FB7AC
:10041000F894111105C09C91ED2FE095E92302C0DD
:10042000EC91ED2BEC938FBFDF91CF911F9108954D
:10043000CF93DF9390E0FC01E656FF4F2491FC013F
:10044000EA57FF4F8491882361F190E0880F991F4C
:10045000FC01E859FF4FC591D491FC01EE58FF4FC4
:10046000A591B491611109C09FB7F8948881209536
:1004700082238883EC912E230BC0623061F49FB7F6
:10048000F8943881822F809583238883EC912E2BDA
:100490002C939FBF06C08FB7F894E8812E2B28833A
:1004A0008FBFDF91CF910895CF93DF93EC0161E08F
:1004B00080E10E941802209711F460E004C0CF3F51
:1004C000D10531F461E080E1DF91CF910C94E80136
:1004D000EEEBF0E0E491E330F9F048F4E130B9F00C
:1004E000E230A1F584B5806284BDC8BD34C0E73078
:1004F000E9F0E83019F1E43049F58091800080623C
:1005000080938000D0938B00C0938A0024C084B570
:10051000806884BDC7BD1FC08091800080688093C3
:100520008000D0938900C093880015C08091B000EE
:1005300080688093B000C093B3000DC08091B0007C
:1005400080628093B000C093B40005C0C038D1056C
:100550000CF0B8CFB2CFDF91CF9108953FB7F894A8
:100560008091250190912601A0912701B091280149
:1005700026B5A89B05C02F3F19F00196A11DB11DFE
:100580003FBFBA2FA92F982F8827820F911DA11D39
:10059000B11DBC01CD0142E0660F771F881F991F76
:1005A0004A95D1F708958F929F92AF92BF92CF92C2
:1005B000DF92EF92FF920E94AE024B015C0185E058
:1005C000C82ED12CE12CF12C0E94AE02DC01CB0113
:1005D00088199909AA09BB09883E9340A105B1056C
:1005E00058F021E0C21AD108E108F10888EE880E1F
:1005F00083E0981EA11CB11CC114D104E104F104D4
:1006000019F7FF90EF90DF90CF90BF90AF909F9041
:100610008F9008958F929F92AF92BF920F931F93E6
:10062000CF93DF93CDB7DEB7A1970FB6F894DEBFB7
:100630000FBECDBF19A2423008F44AE08E010F5D13
:100640001F4F842E912CA12CB12CA50194010E9446
:100650005D0CE62FB901CA0101501109EA3014F40A
:10066000E05D01C0E95CD801EC93232B242B252B02
:1006700061F70115110571F0F80101900020E9F70B
:100680003197AF01401B510BB8018BE391E00E9401
:100690008C0002C080E090E0A1960FB6F894DEBF17
:1006A0000FBECDBFDF91CF911F910F91BF90AF9043
:1006B0009F908F9008950E94850C1F920F920FB605
:1006C0000F9211242F933F934F935F936F937F93D8
:1006D0008F939F93AF93BF93EF93FF938BE391E03F
:1006E0000E940201FF91EF91BF91AF919F918F9175
:1006F0007F916F915F914F913F912F910F900FBE1E
:100700000F901F9018951F920F920FB60F92112401
:100710002F938F939F93EF93FF93E0914B01F09171
:100720004C018081E0915101F091520182FD12C093
:100730009081809154018F5F8F73209155018217B2
:1007400051F0E0915401F0E0E55CFE4F958F80930D
:10075000540101C08081FF91EF919F918F912F9162
:100760000F900FBE0F901F9018951F920F920FB60B
:100770000F9211242F933F938F939F93AF93BF9327
:100780008091210190912201A0912301B091240137
:100790003091200123E0230F2D3720F40196A11D75
:1007A000B11D05C026E8230F0296A11DB11D20939F
:1007B00020018093210190932201A0932301B09303
:1007C00024018091250190912601A0912701B091EB
:1007D00028010196A11DB11D80932501909326014A
:1007E000A0932701B0932801BF91AF919F918F9162
:1007F0003F912F910F900FBE0F901F901895CF93A0
:10080000DF9300D0CDB7DEB7789484B5826084BD25
:1008100084B5816084BD85B5826085BD85B5816004
:1008200085BD80916E00816080936E001092810082
:10083000809181008260809381008091810081603D
:1008400080938100809180008160809380008091FE
:10085000B10084608093B1008091B000816080938A
:10086000B00080917A00846080937A0080917A0051
:10087000826080937A0080917A00816080937A0010
:1008800080917A00806880937A001092C100E09194
:100890004B01F0914C0182E08083E0914701F0919F
:1008A00048011082E0914901F0914A018FEC808368
:1008B00010925301E0914F01F091500186E0808346
:1008C000E0914D01F0914E01808180618083E09143
:1008D0004D01F0914E01808188608083E0914D014F
:1008E000F0914E01808180688083E0914D01F0910C
:1008F0004E0180818F7D808361E08DE00E9418022F
:1009000061E08CE00E94180261E08BE00E94180216
:1009100061E08AE00E94180261E089E00E9418020A
:1009200061E088E00E94180261E087E00E941802FE
:1009300061E086E00E94180261E085E00E941802F2
:1009400061E084E00E94180261E083E00E941802E6
:1009500061E082E00E94180260E08FE00E941802CD
:1009600060E08EE00E9418028FEF93E00E94540234
:100970000E94D30280E090E00E94540203E010E065
:1009800084E0E82EF12C9AE0292E312C29E0422E29
:10099000512C38E0632E712C45E0842E912C8BE392
:1009A00091E00E94EC00181619067CF58BE391E0AB
:1009B0000E94CA0090930901809308015C01990F7D
:1009C000CC08DD08D7FE14C0E0913B01F0913C015A
:1009D0000190F081E02D6DE28BE391E009956627AF
:1009E0007727CB016A197B098C099D094AE003C06E
:1009F0004AE0C601B5010E940A0342E050E06CE102
:100A000071E08BE391E00E948C008091080190914D
:100A100009018136910559F421E030E03093070156
:100A20002093060130930501209304013CC08236D7
:100A3000910569F422E030E030930701209306012C
:100A400041E050E050930501409304012CC08336EF
:100A5000910559F4109307010093060121E030E05D
:100A600030930501209304012CC08436910569F46C
:100A700041E050E0509307014093060122E030E04E
:100A800030930501209304012AC08536910559F45D
:100A900022E030E0309307012093060130930501F6
:100AA0002093040136C08636910559F4109307014E
:100AB0000093060122E030E0309305012093040109
:100AC00036C08736910559F421E030E030930701B4
:100AD00020930601109305010093040136C0883667
:100AE000910559F422E030E030930701209306018C
:100AF000109305010093040134C08936910549F42F
:100B0000109307010093060110930501009304015F
:100B100030C08A36910559F441E050E05093070106
:100B200040930601F0920501E09204012CC08B363F
:100B3000910559F422E030E030930701209306013B
:100B4000F0920501E092040130C08C36910549F421
:100B50001093070100930601F0920501E092040151
:100B600038C08837910529F410923A011092390162
:100B700042C08A37910539F421E030E030933A01E0
:100B8000209339014CC08133910579F441E050E064
:100B900050930701409306015093050140930401CF
:100BA00050930301409302014CC08233910589F4B4
:100BB00022E030E0309307012093060141E050E04D
:100BC00050930501409304013093030120930201E7
:100BD0004CC08333910579F410930701009306010B
:100BE00021E030E0309305012093040110930301CC
:100BF000009302014EC08433910589F441E050E036
:100C0000509307014093060122E030E03093050144
:100C100020930401F0920301E09202014CC085335D
:100C2000910579F422E030E030930701209306012A
:100C300030930501209304019092030180920201F8
:100C40004AC08633910589F4109307010093060189
:100C500022E030E0309305012093040126E030E0EB
:100C6000309303012093020148C08733910589F432
:100C700041E050E0509307014093060110930501B5
:100C80000093040127E030E0309303012093020138
:100C900048C08833910579F482E090E09093070191
:100CA00080930601109305010093040170920301E3
:100CB0006092020146C08933910569F410930701DF
:100CC0000093060110930501009304015092030163
:100CD0004092020136C08A33910579F441E050E038
:100CE0005093070140930601F0920501E092040140
:100CF000309203012092020124C08B33910589F4C4
:100D000082E090E09093070180930601F092050144
:100D1000E09204018BE090E0909303018093020144
:100D200010C0CC9771F41093070100930601F09264
:100D30000501E09204012CE030E0309303012093A0
:100D400002018091390190913A01029724F01092AA
:100D50003A0110923901C0900201D090030131E0B4
:100D6000C316D10431F461E08DE00E94E80160E037
:100D700009C042E0C416D10489F560E08DE00E940C
:100D8000E80161E08CE00E94E80160E08BE00E94F5
:100D9000E80160E08AE00E94E80160E089E00E94EA
:100DA000E80160E088E00E94E80160E087E00E94DE
:100DB000E80160E086E00E94E80160E085E00E94D2
:100DC000E80160E084E00E94E80160E083E00E94C6
:100DD000E80160E082E00E94E8019FC053E0C51690
:100DE000D10489F560E08DE00E94E80160E08CE0CC
:100DF0000E94E80161E08BE00E94E80160E08AE087
:100E00000E94E80160E089E00E94E80160E088E07B
:100E10000E94E80160E087E00E94E80160E086E06F
:100E20000E94E80160E085E00E94E80160E084E063
:100E30000E94E80160E083E00E94E80160E082E057
:100E40000E94E8019FC084E0C816D10489F560E0E3
:100E50008DE00E94E80160E08CE00E94E80160E023
:100E60008BE00E94E80161E08AE00E94E80160E016
:100E700089E00E94E80160E088E00E94E80160E00B
:100E800087E00E94E80160E086E00E94E80160E0FF
:100E900085E00E94E80160E084E00E94E80160E0F3
:100EA00083E00E94E80160E082E00E94E8019FC0C8
:100EB00095E0C916D10489F560E08DE00E94E80153
:100EC00060E08CE00E94E80160E08BE00E94E801B5
:100ED00060E08AE00E94E80161E089E00E94E801A8
:100EE00060E088E00E94E80160E087E00E94E8019D
:100EF00060E086E00E94E80160E085E00E94E80191
:100F000060E084E00E94E80160E083E00E94E80184
:100F100060E082E00E94E801BAC026E0C216D10477
:100F200089F560E08DE00E94E80160E08CE00E94BD
:100F3000E80160E08BE00E94E80160E08AE00E9446
:100F4000E80160E089E00E94E80161E088E00E9439
:100F5000E80160E087E00E94E80160E086E00E942E
:100F6000E80160E085E00E94E80160E084E00E9422
:100F7000E80160E083E00E94E80160E082E00E9416
:100F8000E801B3C037E0C316D10489F560E08DE015
:100F90000E94E80160E08CE00E94E80160E08BE0E4
:100FA0000E94E80160E08AE00E94E80160E089E0D8
:100FB0000E94E80160E088E00E94E80161E087E0CB
:100FC0000E94E80160E086E00E94E80160E085E0C0
:100FD0000E94E80160E084E00E94E80160E083E0B4
:100FE0000E94E80160E082E00E94E801B0C048E0B1
:100FF000C416D10411F560E08DE00E94E80160E0C4
:101000008CE00E94E80160E08BE00E94E80160E073
:101010008AE00E94E80160E089E00E94E80160E067
:1010200088E00E94E80160E087E00E94E80161E05A
:1010300086E00E94E80160E025C059E0C516D104B1
:1010400031F560E08DE00E94E80160E08CE00E94F4
:10105000E80160E08BE00E94E80160E08AE00E9425
:10106000E80160E089E00E94E80160E088E00E9419
:10107000E80160E087E00E94E80160E086E00E940D
:10108000E80161E085E00E94E80160E029C08AE0B3
:10109000C816D10451F560E08DE00E94E80160E0DF
:1010A0008CE00E94E80160E08BE00E94E80160E0D3
:1010B0008AE00E94E80160E089E00E94E80160E0C7
:1010C00088E00E94E80160E087E00E94E80160E0BB
:1010D00086E00E94E80160E085E00E94E80161E0AE
:1010E00084E00E94E80160E02DC09BE0C916D104B5
:1010F00071F560E08DE00E94E80160E08CE00E9404
:10110000E80160E08BE00E94E80160E08AE00E9474
:10111000E80160E089E00E94E80160E088E00E9468
:10112000E80160E087E00E94E80160E086E00E945C
:10113000E80160E085E00E94E80160E084E00E9450
:10114000E80161E083E00E94E80160E031C02CE04A
:10115000C216D10481F560E08DE00E94E80160E0F4
:101160008CE00E94E80160E08BE00E94E80160E012
:101170008AE00E94E80160E089E00E94E80160E006
:1011800088E00E94E80160E087E00E94E80160E0FA
:1011900086E00E94E80160E085E00E94E80160E0EE
:1011A00084E00E94E80160E083E00E94E80161E0E1
:1011B00082E00E94E8018FE00E94BF01813091052A
:1011C00029F4909338018093370104C010923801BC
:1011D0001092370181E10E94BF018130910529F40D
:1011E000909336018093350104C01092360110921D
:1011F000350183E10E94BF018130910529F490936C
:1012000034018093330104C01092340110923301F1
:1012100037E430937C0080917A00806480937A0078
:1012200080917A0086FDFCCF809178002091790032
:1012300090E0922B853F91403CF081E090E09093CC
:1012400032018093310104C01092320110923101B9
:101250008091080190910901C09709F0FBC180912C
:10126000390190913A01009709F0F5C0C090310121
:10127000D090320180912F0190913001C816D9068B
:1012800011F191E0C916D104D1F4D0920701C092B6
:101290000601D0920501C09204018FEF93E00E94F5
:1012A00054020E94D30280E090E00E945402809198
:1012B0000201909103019093010180930001D0926B
:1012C0003001C0922F01C0903701D0903801809139
:1012D0002D0190912E01C816D90609F180910601C1
:1012E00090910701AC014150510942305105B8F4C9
:1012F00021E0C216D10479F40196909307018093FE
:1013000006018FEF93E00E9454020E94D30280E016
:1013100090E00E945402D0922E01C0922D01809143
:101320002D0190912E01C816D90629F18091060150
:10133000909107010397F9F431E0C316D104B9F491
:10134000F0920701E092060180910401909105015D
:10135000019690930501809304018FEF93E00E9422
:1013600054020E94D30280E090E00E945402D09286
:101370002E01C0922D01C0903501D0903601809190
:101380002B0190912C01C816D906D9F041E0C41662
:10139000D10499F4809104019091050101969093F4
:1013A0000501809304018FEF93E00E9454020E9494
:1013B000D30280E090E00E945402D0922C01C092AF
:1013C0002B018091040190910501059784F081E043
:1013D00090E090930501809304018FEF93E00E94C9
:1013E00054020E94D30280E090E00E945402C09018
:1013F0003301D09034018091290190912A01C816BF
:10140000D906D9F091E0C916D10499F4809106016A
:1014100090910701019690930701809306018FEF49
:1014200093E00E9454020E94D30280E090E00E9468
:101430005402D0922A01C092290180910601909114
:10144000070104970CF486C121E030E030930701D6
:1014500020930601F4C0019709F07CC1C0903101CE
:10146000D090320131E0C316D104F1F4D0920701DB
:10147000C0920601D0920501C09204018FEF93E063
:101480000E9454020E94D30280E090E00E94540225
:10149000D0923001C0922F018091020190910301FE
:1014A0009093010180930001C0903701D0903801E2
:1014B00080912D0190912E01C816D90609F18091D5
:1014C000060190910701AC0142505109423051058B
:1014D000B8F441E0C416D10479F401979093070160
:1014E000809306018FEF93E00E9454020E94D30282
:1014F00080E090E00E945402D0922E01C0922D0113
:1015000080912D0190912E01C816D90629F1809164
:101510000601909107010197F9F451E0C516D10435
:10152000B9F4109207011092060180910401909184
:101530000501019790930501809304018FEF93E0DB
:101540000E9454020E94D30280E090E00E94540264
:10155000D0922E01C0922D0120913501309136019B
:1015600080912B0190912C0128173907F1F021303F
:101570003105B9F480910401909105010197909390
:101580000501809304018FEF93E029833A830E9441
:1015900054020E94D30280E090E00E9454023A81FB
:1015A000298130932C0120932B018091040190918B
:1015B00005011816190674F0F0920501E092040175
:1015C0008FEF93E00E9454020E94D30280E090E0EB
:1015D0000E945402209133013091340180912901FD
:1015E00090912A0128173907F1F021303105B9F41B
:1015F00080910601909107010197909307018093D4
:1016000006018FEF93E029833A830E9454020E94DF
:10161000D30280E090E00E9454023A812981309305
:101620002A01209329018091060190910701181643
:1016300019060CF48FC010930701009306018FEF79
:1016400093E00E9454020E94D30280E090E00E9446
:10165000540280C0209137013091380180912D01D2
:1016600090912E0128173907A9F02130310571F426
:101670008FEF93E029833A830E9454020E94D302A1
:1016800080E090E00E9454023A81298130932E013B
:1016900020932D01209135013091360180912B014D
:1016A00090912C0128173907A9F02130310571F4E8
:1016B0008FEF93E029833A830E9454020E94D30261
:1016C00080E090E00E9454023A81298130932C01FD
:1016D00020932B0120913301309134018091290115
:1016E00090912A0128173907A9F02130310571F4AA
:1016F0008FEF93E029833A830E9454020E94D30221
:1017000080E090E00E9454023A81298130932A01BE
:1017100020932901209131013091320180912F01D4
:101720009091300128173907A9F02130310571F463
:101730008FEF93E029833A830E9454020E94D302E0
:1017400080E090E00E9454023A8129813093300178
:1017500020932F018091060190910701813091051E
:1017600061F4809104019091050181309105E1F4CB
:1017700090930301809302011EC08230910509F00D
:1017800047C020910401309105012130310521F439
:10179000909303018093020122303105B1F49092BD
:1017A00003018092020111C08230910521F4F09270
:1017B0000301E09202018330910579F427E030E0E3
:1017C000309303012093020108C02330310561F4F6
:1017D000709203016092020107C0049771F4309285
:1017E00003012092020109C02430310531F44BE09D
:1017F00050E05093030140930201809102019091C7
:10180000030190930101809300010E948C01C7C8DD
:101810008330910591F72091040130910501213029
:10182000310521F4909303018093020122303105A8
:1018300031F486E090E0909303018093020123301D
:10184000310521F450920301409202012430310508
:10185000A1F68CE090E09093030180930201CDCF3C
:10186000EBE3F1E01382128288EE93E0A0E0B0E0B7
:1018700084839583A683B7838EE091E091838083F0
:1018800085EC90E09587848784EC90E09787868745
:1018900080EC90E0918B808B81EC90E0938B828B3D
:1018A00082EC90E0958B848B86EC90E0978B868B16
:1018B000118E128E138E148E0895A1E21A2EAA1B79
:1018C000BB1BFD010DC0AA1FBB1FEE1FFF1FA217F0
:1018D000B307E407F50720F0A21BB30BE40BF50BED
:1018E000661F771F881F991F1A9469F76095709576
:1018F000809590959B01AC01BD01CF010895EE0F3D
:10190000FF1F0590F491E02D099481E090E0F89498
:081910000C948A0CF894FFCF3F
:101918000100010001000100300000000000230167
:101928008C00BB006A01EC00CA00DE000D0A000052
:107800000C94343C0C94513C0C94513C0C94513CE1
:107810000C94513C0C94513C0C94513C0C94513CB4
:107820000C94513C0C94513C0C94513C0C94513CA4
:107830000C94513C0C94513C0C94513C0C94513C94
:107840000C94513C0C94513C0C94513C0C94513C84
:107850000C94513C0C94513C0C94513C0C94513C74
:107860000C94513C0C94513C11241FBECFEFD8E036
:10787000DEBFCDBF11E0A0E0B1E0ECE9FFE702C060
:1078800005900D92A230B107D9F712E0A2E0B1E065
:1078900001C01D92AD30B107E1F70E942D3D0C945F
:1078A000CC3F0C94003C982F959595959595959582
:1078B000905D8F708A307CF0282F295A8091C0000B
:1078C00085FFFCCF9093C6008091C00085FFFCCF60
:1078D0002093C6000895282F205DF0CF982F809127
:1078E000C00085FFFCCF9093C6000895EF92FF92F1
:1078F0000F931F93EE24FF2487018091C00087FD22
:1079000017C00894E11CF11C011D111D81E4E8164B
:1079100082E4F8068FE0080780E0180770F3E09132
:107920000401F091050109958091C00087FFE9CF1E
:107930008091C6001F910F91FF90EF9008950E94D3
:10794000763C982F8091C00085FFFCCF9093C600B5
:1079500091362CF490330CF09053892F089597555D
:10796000892F08951F930E949F3C182F0E949F3CCF
:107970001295107F810F1F9108951F93182F882350
:1079800021F00E94763C1150E1F71F9108951F935A
:10799000182F0E94763C803249F0809103018F5F5E
:1079A000809303018530C1F01F9108958091C0003C
:1079B00085FFFCCF84E18093C6008091C00085FFE5
:1079C000FCCF1093C6008091C00085FFFCCF80E102
:1079D0008093C6001F910895E0910401F091050184
:1079E00009951F9108950E94763C803241F0809164
:1079F00003018F5F80930301853081F008958091AA
:107A0000C00085FFFCCF84E18093C6008091C00058
:107A100085FFFCCF80E18093C6000895E0910401CA
:107A2000F09105010995089540E951E08823A1F0FE
:107A30002D9A28EE33E0FA013197F1F721503040CA
:107A4000D1F72D9828EE33E0FA013197F1F7215064
:107A50003040D1F7815061F708953F924F925F9285
:107A60006F927F928F929F92AF92BF92CF92DF924E
:107A7000EF92FF920F931F93CF93DF93000080E16B
:107A80008093C4001092C50088E18093C10086E015
:107A90008093C2005098589A259A81E00E94143D24
:107AA00024E1F22E9EE1E92E85E9D82E0FE0C02ECA
:107AB00010E1B12EAA24A394B1E49B2EA6E58A2E50
:107AC000F2E57F2EE0E26E2E79E4572E63E5462E36
:107AD00050E5352E0E94763C8033B1F18133B9F107
:107AE000803409F46FC0813409F476C0823409F41B
:107AF00085C0853409F488C0803531F1823521F1A3
:107B0000813511F1853509F485C0863509F48DC0BC
:107B1000843609F496C0843709F403C1853709F423
:107B200072C1863709F466C0809103018F5F80932C
:107B30000301853079F6E0910401F0910501099582
:107B40000E94763C803351F60E94F33CC3CF0E94E2
:107B5000763C803249F78091C00085FFFCCFF092DF
:107B6000C6008091C00085FFFCCF9092C600809136
:107B7000C00085FFFCCF8092C6008091C00085FFC9
:107B8000FCCF7092C6008091C00085FFFCCF609250
:107B9000C6008091C00085FFFCCF5092C600809146
:107BA000C00085FFFCCF4092C6008091C00085FFD9
:107BB000FCCF3092C6008091C00085FFFCCFB09210
:107BC000C60088CF0E94763C863808F4BDCF0E945C
:107BD000763C0E94F33C7ECF0E94763C803809F4CC
:107BE0009CC0813809F40BC1823809F43CC1883942
:107BF00009F48FC080E00E94C73C6CCF84E10E94F2
:107C0000BD3C0E94F33C66CF85E00E94BD3C0E94D3
:107C1000F33C60CF0E94763C809306010E94763C44
:107C2000809307010E94F33C55CF0E94763C80333D
:107C300009F41DC183E00E94BD3C80E00E94C73C66
:107C400049CF0E94763C809309020E94763C809343
:107C5000080280910C028E7F80930C020E94763C79
:107C6000853409F415C18091080290910902892B8D
:107C700089F000E010E00E94763CF801E85FFE4FDA
:107C800080830F5F1F4F80910802909109020817AF
:107C9000190788F30E94763C803209F045CF809125
:107CA0000C0280FF01C16091060170910701660F0F
:107CB000771F7093070160930601A0910802B091AD
:107CC00009021097C9F0E8E0F1E09B01AD014E0F09
:107CD0005F1FF999FECF32BD21BD819180BDFA9A17
:107CE000F99A2F5F3F4FE417F50799F76A0F7B1F4B
:107CF00070930701609306018091C00085FFFCCF5F
:107D0000F092C6008091C00085FFFCCFB092C60003
:107D1000E1CE83E00E94C73CDDCE82E00E94C73CFA
:107D2000D9CE0E94763C809309020E94763C8093D3
:107D300008028091060190910701880F991F909386
:107D40000701809306010E94763C853409F4A6C0A1
:107D500080910C028E7F80930C020E94763C8032D0
:107D600009F0B8CE8091C00085FFFCCFF092C6002C
:107D7000609108027091090261157105B9F140E046
:107D800050E080910C02A82FA170B82FB27011C0E2
:107D9000BB2309F45CC0E0910601F0910701319624
:107DA000F0930701E09306014F5F5F4F46175707B7
:107DB000E8F4AA2369F3F999FECF209106013091E6
:107DC000070132BD21BDF89A90B58091C00085FFB2
:107DD000FCCF9093C6002F5F3F4F30930701209355
:107DE00006014F5F5F4F4617570718F38091C00099
:107DF00085FDE5CE8091C00085FFF8CFE0CE81E023
:107E00000E94C73C67CE0E94763C803209F08CCE3F
:107E10008091C00085FFFCCFF092C6008091C00029
:107E200085FFFCCFE092C6008091C00085FFFCCFAB
:107E3000D092C6008091C00085FFFCCFC092C600E2
:107E40008091C00085FFFCCFB092C60043CEE09188
:107E50000601F091070194918091C00085FFFCCF4D
:107E60009093C6009CCF80E10E94C73C33CE0E9415
:107E7000763C0E94763C182F0E94763C112309F430
:107E800083C0113009F484C08FE00E94C73C22CE29
:107E900080910C02816080930C02E5CE80910C02EF
:107EA000816080930C0259CF809107018823880F4D
:107EB000880B8A2180930B02809106019091070123
:107EC000880F991F90930701809306018091080203
:107ED00080FF09C080910802909109020196909359
:107EE000090280930802F894F999FECF1127E091D6
:107EF0000601F0910701C8E0D1E08091080290915D
:107F00000902103091F40091570001700130D9F34B
:107F100003E000935700E89500915700017001308D
:107F2000D9F301E100935700E89509901990009169
:107F3000570001700130D9F301E000935700E89534
:107F40001395103498F011270091570001700130FB
:107F5000D9F305E000935700E895009157000170B0
:107F60000130D9F301E100935700E895329602976A
:107F700009F0C7CF103011F00296E5CF112480919F
:107F8000C00085FFB9CEBCCE8EE10E94C73CA2CD19
:0C7F900085E90E94C73C9ECDF894FFCF0D
:027F9C00800063
:040000030000780081
:00000001FF
