:100000000C9462000C948A000C948A000C948A0070
:100010000C948A000C948A000C948A000C948A0038
:100020000C948A000C948A000C948A000C948A0028
:100030000C948A000C948A000C948A000C948A0018
:100040000C9467030C948A000C9435030C940F03F2
:100050000C948A000C948A000C948A000C948A00F8
:100060000C948A000C948A000000000024002700F1
:100070002A0000000000250028002B0000000000DE
:1000800023002600290004040404040404040202DA
:100090000202020203030303030301020408102007
:1000A0004080010204081020010204081020000012
:1000B0000008000201000003040700000000000027
:1000C0000000F20B11241FBECFEFD8E0DEBFCDBF82
:1000D00011E0A0E0B1E0E2E9F8E102C005900D9284
:1000E000AE31B107D9F721E0AEE1B1E001C01D9218
:1000F000AA3DB207E1F710E0C2E6D0E004C02197C4
:10010000FE010E94410CC136D107C9F70E94B1031C
:100110000C94470C0C940000AF92BF92CF92DF92E8
:10012000EF92FF920F931F93CF93DF936C017B01AC
:100130008B01040F151FEB015E01AE18BF08C0173D
:10014000D10759F06991D601ED91FC910190F081B0
:10015000E02DC6010995892B79F7C501DF91CF9173
:100160001F910F91FF90EF90DF90CF90BF90AF90D5
:100170000895FC01538D448D252F30E0842F90E0AD
:10018000821B930B541710F0CF9608950197089592
:10019000FC01918D828D981761F0A28DAE0FBF2F5B
:1001A000B11D5D968C91928D9F5F9F73928F90E0B1
:1001B00008958FEF9FEF0895FC01918D828D981720
:1001C00031F0828DE80FF11D858D90E008958FEF5D
:1001D0009FEF0895FC01918D228D892F90E0805C26
:1001E0009F4F821B91098F73992708958DE391E0AA
:1001F0000E94EA0021E0892B09F420E0822F089573
:1002000080E090E0892B29F00E94F60081110C9487
:1002100000000895FC01A48DA80FB92FB11DA35AA9
:10022000BF4F2C91848D90E001968F739927848F16
:10023000A689B7892C93A089B1898C918370806439
:100240008C93938D848D981306C00288F389E02DDA
:1002500080818F7D80830895EF92FF920F931F938B
:10026000CF93DF93EC0181E0888F9B8D8C8D981369
:100270001AC0E889F989808185FF15C09FB7F89475
:10028000EE89FF896083E889F989808183708064C1
:1002900080839FBF81E090E0DF91CF911F910F910C
:1002A000FF90EF900895F62E0B8D10E00F5F1F4F1B
:1002B0000F731127E02E8C8D8E110CC00FB607FC2A
:1002C000FACFE889F989808185FFF5CFCE010E94B8
:1002D0000A01F1CFEB8DEC0FFD2FF11DE35AFF4F1B
:1002E000F0829FB7F8940B8FEA89FB898081806246
:1002F000CFCFCF93DF93EC01888D8823B9F0AA8903
:10030000BB89E889F9898C9185FD03C0808186FDD0
:100310000DC00FB607FCF7CF8C9185FFF2CF80811F
:1003200085FFEDCFCE010E940A01E9CFDF91CF9189
:100330000895833081F028F4813099F08230A9F05B
:1003400008958730A9F08830C9F08430B1F48091E5
:1003500080008F7D03C0809180008F778093800024
:10036000089584B58F7784BD089584B58F7DFBCFC4
:100370008091B0008F778093B00008958091B00095
:100380008F7DF9CFCF93DF93282F30E0F901E2552D
:10039000FF4F8491F901E656FF4FD491F901EA57D6
:1003A000FF4FC491CC23A1F081110E949901EC2F41
:1003B000F0E0EE0FFF1FE458FF4FA591B491EC91D0
:1003C000ED2381E090E009F480E0DF91CF91089582
:1003D00080E090E0FACF1F93CF93DF93282F30E097
:1003E000F901E255FF4F8491F901E656FF4FD49190
:1003F000F901EA57FF4FC491CC23A9F0162F8111C0
:100400000E949901EC2FF0E0EE0FFF1FEE58FF4F16
:10041000A591B4918FB7F894EC91111108C0D095C3
:10042000DE23DC938FBFDF91CF911F910895DE2BE8
:10043000F8CFEEEBF0E0E491E33039F160F4E13035
:10044000D1F0E230E9F060E0803891050CF061E035
:1004500080E10C94EB01E73011F1E83041F1E43038
:1004600091F72091800020622093800090938B0070
:1004700080938A00089594B5906894BD87BD0895CF
:1004800094B5906294BD88BD089520918000206845
:100490002093800090938900809388000895909124
:1004A000B00090689093B0008093B300089590914D
:1004B000B00090629093B0008093B4000895CF9301
:1004C000DF9390E0FC01E656FF4F24918A579F4F3F
:1004D000FC0184918823D1F090E0880F991FFC01E2
:1004E000E859FF4FA591B491FC01EE58FF4FC5911B
:1004F000D49161110EC09FB7F8948C91E22FE095D2
:100500008E238C932881E223E8839FBFDF91CF91D4
:1005100008958FB7F894EC91E22BEC938FBFF6CF50
:100520003FB7F8948091230190912401A091250177
:10053000B091260126B5A89B05C02F3F19F0019662
:10054000A11DB11D3FBFBA2FA92F982F8827BC012D
:10055000CD01620F711D811D911D42E0660F771F55
:10056000881F991F4A95D1F708952FB7F894609185
:100570001F017091200180912101909122012FBFD4
:1005800008958F929F92AF92BF920F931F93CF9334
:10059000DF93CDB7DEB7A1970FB6F894DEBF0FBEDD
:1005A000CDBF19A2423008F44AE08E010F5D1F4F03
:1005B000842E912CB12CA12CA50194010E941F0C1A
:1005C000E62FB901CA01EA3044F5E05DD801EE93A7
:1005D0008D01232B242B252B79F790E080E01097B9
:1005E00069F0FD0101900020E9F73197AF014A1B46
:1005F0005B0BBD018DE391E00E948C00A1960FB6CC
:10060000F894DEBF0FBECDBFDF91CF911F910F9148
:10061000BF90AF909F908F900895E95CD7CF1F92C5
:100620000F920FB60F9211242F933F934F935F9326
:100630006F937F938F939F93AF93BF93EF93FF93AA
:100640008DE391E00E940A01FF91EF91BF91AF917C
:100650009F918F917F916F915F914F913F912F91DA
:100660000F900FBE0F901F9018951F920F920FB60C
:100670000F9211242F938F939F93EF93FF93E09109
:100680004D01F0914E018081E0915301F0915401B0
:1006900082FD1BC09081809156018F5F8F732091E6
:1006A0005701821741F0E0915601F0E0E35CFE4F04
:1006B000958F80935601FF91EF919F918F912F918C
:1006C0000F900FBE0F901F9018958081F4CF1F924E
:1006D0000F920FB60F9211242F933F938F939F93F6
:1006E000AF93BF9380911F0190912001A0912101B0
:1006F000B091220130911E0123E0230F2D3758F5D0
:100700000196A11DB11D20931E0180931F0190939E
:100710002001A0932101B0932201809123019091A7
:100720002401A0912501B09126010196A11DB11DC2
:100730008093230190932401A0932501B093260177
:10074000BF91AF919F918F913F912F910F900FBECD
:100750000F901F90189526E8230F0296A11DB11D3A
:10076000D2CF789484B5826084BD84B5816084BD25
:1007700085B5826085BD85B5816085BD80916E003F
:10078000816080936E001092810080918100826070
:1007900080938100809181008160809381008091AD
:1007A00080008160809380008091B100846080939C
:1007B000B1008091B00081608093B00080917A0098
:1007C000846080937A0080917A00826080937A00BE
:1007D00080917A00816080937A0080917A008068AD
:1007E00080937A001092C100E0914D01F0914E018A
:1007F00082E08083E0914901F0914A011082E0910A
:100800004B01F0914C0180E1808310925501E09101
:100810005101F091520186E08083E0914F01F09107
:100820005001808180618083E0914F01F0915001FF
:10083000808188608083E0914F01F0915001808138
:1008400080688083E0914F01F091500180818F7D1D
:10085000808361E08DE00E945F0261E08CE00E9495
:100860005F0261E08BE00E945F0261E08AE00E942B
:100870005F0261E089E00E945F0261E088E00E941F
:100880005F0261E087E00E945F0261E086E00E9413
:100890005F0261E085E00E945F0261E084E00E9407
:1008A0005F0261E083E00E945F0261E082E00E94FB
:1008B0005F0260E08FE00E945F0260E08EE00E94D5
:1008C0005F0261E080E10E945F028FEF93E00E948F
:1008D00019020E9490022B013C0145E0C42ED12C4C
:1008E000E12CF12C0E949002641975098609970980
:1008F000683E734081059105A8F321E0C21AD10832
:10090000E108F10838EE430E33E0531E611C711C00
:10091000C114D104E104F10429F761E080E10E94EF
:100920005F0260E080E10E94EB0181E090E0909343
:1009300001018093000189E0882E912C03E010E0F2
:1009400094E0C92ED12C2BE0622E712CC1E0D0E0B6
:100950003AE0A32EB12C8DE391E00E94EA00181634
:10096000190644F58DE391E00E94C80090930701B9
:10097000809306011C01990F440855084AE0C20102
:10098000B10157FE0DC06DE28DE391E00E942C0194
:1009900066277727CB0162197309840995094AE014
:1009A0000E94C10242E050E06AE171E08DE391E013
:1009B0000E948C008091060190910701813691057B
:1009C00009F05AC0D0930501C0930401D0930301EC
:1009D000C09302018636910509F064C010930501A9
:1009E0000093040122E030E03093030120930201E0
:1009F0008B36910509F062C022E030E030930501AA
:100A000020930401D0920301C09202018233910528
:100A100009F060C022E030E030930501209304012A
:100A2000D0930301C0930201309301012093000190
:100A30008733910509F05EC0D0930501C09304018E
:100A4000109303010093020127E030E0309301018D
:100A500020930001CC9709F061C010930501009329
:100A60000401D0920301C09202012CE030E03093E7
:100A700001012093000152C08236910539F422E031
:100A800030E03093050120930401A0CF8336910517
:100A900009F0EBC01093050100930401D09303010A
:100AA000C09302018736910509F0EDC0D09305018E
:100AB000C093040110930301009302018C36910549
:100AC00009F0EFC01093050100930401D0920301D7
:100AD000C09202018333910509F0EBC01093050128
:100AE00000930401D0930301C0930201109301010C
:100AF000009300018833910509F0EDC082E090E099
:100B00009093050180930401109303010093020167
:100B100088E090E0909301018093000180913B0177
:100B200090913C01029724F010923C0110923B01FD
:100B3000E0900001F090010131E0E316F10409F0CA
:100B400063C161E08DE00E94EB0160E08CE00E94F7
:100B5000EB0160E08BE00E94EB0160E08AE00E9424
:100B6000EB0160E089E00E94EB0160E088E00E9418
:100B7000EB0160E087E00E94EB0160E086E00E940C
:100B8000EB0160E085E00E94EB0160E084E00E9400
:100B9000EB0160E083E00E94EB0160E082E00E94F4
:100BA000EB0186E0E816F10409F06DC160E08DE02C
:100BB0000E94EB0160E08CE00E94EB0160E08BE0C2
:100BC0000E94EB0160E08AE00E94EB0160E089E0B6
:100BD0000E94EB0161E088E00E94EB0160E087E0A9
:100BE0000E94EB0160E086E00E94EB0160E085E09E
:100BF0000E94EB0160E084E00E94EB0160E083E092
:100C00000E94EB0160E082E00E94EB019BE0E916AC
:100C1000F10409F06DC160E08DE00E94EB0160E03D
:100C20008CE00E94EB0160E08BE00E94EB0160E051
:100C30008AE00E94EB0160E089E00E94EB0160E045
:100C400088E00E94EB0160E087E00E94EB0160E039
:100C500086E00E94EB0160E085E00E94EB0160E02D
:100C600084E00E94EB0161E0D9C18436910509F06E
:100C700043C0D0930501C093040122E030E03093DB
:100C80000301209302018836910509F086C022E015
:100C900030E0309305012093040110930301009389
:100CA00002018837910509F084C010923C0110922E
:100CB0003B018433910509F084C0D0930501C093B2
:100CC000040122E030E03093030120930201D0922E
:100CD0000101C09200018933910509F085C010938C
:100CE0000501009304011093030100930201909207
:100CF00001018092000112CF8536910509F06ACE7C
:100D000022E030E030930501209304013093030189
:100D1000209302018A36910509F06ACED09305012D
:100D2000C0930401D0920301C09202018133910566
:100D300009F06CCED0930501C0930401D093030158
:100D4000C0930201D0930101C09300018633910545
:100D500009F06ECE109305010093040122E030E00B
:100D6000309303012093020126E030E0309301012B
:100D7000209300018B33910509F06CCE82E090E066
:100D80009093050180930401D0920301C092020167
:100D90007092010160920001C1CE8936910509F07F
:100DA000B9CF109305010093040110930301009340
:100DB00002018A37910509F0B9CFD0933C01C09365
:100DC0003B018533910511F622E030E030930501B7
:100DD00020930401309303012093020125E030E0C9
:100DE00030930101209300018A33910519F6D093C5
:100DF0000501C0930401D0920301C0920201B09298
:100E00000101A09200018ACE82E0E816F10431F4DB
:100E100060E08DE00E94EB0161E098CE93E0E9167E
:100E2000F10409F098C060E08DE00E94EB0160E001
:100E30008CE00E94EB0161E08BE00E94EB0160E03E
:100E40008AE00E94EB0160E089E00E94EB0160E033
:100E500088E00E94EB0160E087E00E94EB0160E027
:100E600086E00E94EB0160E085E00E94EB0160E01B
:100E700084E00E94EB0160E083E00E94EB0160E00F
:100E800082E00E94EB0197E0E916F10409F098C0B6
:100E900060E08DE00E94EB0160E08CE00E94EB01DD
:100EA00060E08BE00E94EB0160E08AE00E94EB01D1
:100EB00060E089E00E94EB0160E088E00E94EB01C5
:100EC00061E087E00E94EB0160E086E00E94EB01B8
:100ED00060E085E00E94EB0160E084E00E94EB01AD
:100EE00060E083E00E94EB0160E082E00E94EB01A1
:100EF0002CE0E216F10409F098C060E08DE00E9459
:100F0000EB0160E08CE00E94EB0160E08BE00E946E
:100F1000EB0160E08AE00E94EB0160E089E00E9462
:100F2000EB0160E088E00E94EB0160E087E00E9456
:100F3000EB0160E086E00E94EB0160E085E00E944A
:100F4000EB0160E084E00E94EB0160E083E00E943E
:100F5000EB0161E067C024E0E216F10409F09CC1F6
:100F600060E08DE00E94EB0160E08CE00E94EB010C
:100F700060E08BE00E94EB0161E08AE00E94EB01FF
:100F800060E089E00E94EB0160E088E00E94EB01F4
:100F900060E087E00E94EB0160E086E00E94EB01E8
:100FA00060E085E00E94EB0160E084E00E94EB01DC
:100FB00060E083E00E94EB0160E082E00E94EB01D0
:100FC00028E0E216F10409F0C7C160E08DE00E945C
:100FD000EB0160E08CE00E94EB0160E08BE00E949E
:100FE000EB0160E08AE00E94EB0160E089E00E9492
:100FF000EB0160E088E00E94EB0160E087E00E9486
:10100000EB0161E086E00E94EB0160E085E00E9478
:10101000EB0160E084E00E94EB0160E083E00E946D
:10102000EB0160E082E00E94EB018FE00E94C201D0
:101030008130910509F0B6C190933A01809339014E
:1010400081E10E94C2018130910509F0B0C1909305
:1010500038018093370183E10E94C20181309105FC
:1010600009F0AAC1909336018093350137E430939B
:101070007C0080917A00806480937A0080917A006D
:1010800086FDFCCF8091780090917900853F91405A
:101090000CF497C1D0933401C093330180910601C1
:1010A00090910701C09709F0BAC280913B019091DD
:1010B0003C01009709F08AC1E0903901F0903A01B3
:1010C0008091310190913201E816F90609F1809181
:1010D0000401909105019C01215031092230310514
:1010E000B8F431E0E316F10479F401969093050128
:1010F000809304010E94B50260932D0170932E012C
:1011000080932F0190933001F0923201E0923101EF
:101110008091310190913201E816F90629F1809110
:101120000401909105010397F9F481E0E816F104B8
:10113000B9F48091020190910301D0920501C0920F
:101140000401019690930301809302010E94B5026D
:1011500060932D0170932E0180932F0190933001A5
:10116000F0923201E0923101E0903701F0903801C5
:1011700080912B0190912C01E816F906D9F091E0AD
:10118000E916F10499F4809102019091030101960E
:1011900090930301809302010E94B50260932D0198
:1011A00070932E0180932F0190933001F0922C01C7
:1011B000E0922B018091020190910301059774F058
:1011C000D0930301C09302010E94B50260932D01E8
:1011D00070932E0180932F0190933001E0903501A0
:1011E000F09036018091290190912A01E816F906C4
:1011F000D9F021E0E216F10499F480910401909174
:101200000501019690930501809304010E94B502A7
:1012100060932D0170932E0180932F0190933001E4
:10122000F0922A01E0922901809104019091050138
:10123000049774F0D0930501C09304010E94B50295
:1012400060932D0170932E0180932F0190933001B4
:10125000E0903301F09034018091270190912801B2
:10126000E816F90609F48CC131E0E316F10409F03F
:101270003EC2F0920501E0920401F0920301E09277
:1012800002010E94B50260932D0170932E0180939C
:101290002F01909330012BC235E0E316F10409F0E1
:1012A00080CC60E08DE00E94EB0160E08CE00E9469
:1012B000EB0160E08BE00E94EB0160E08AE00E94BD
:1012C000EB0161E089E00E94EB0160E088E00E94B0
:1012D000EB0160E087E00E94EB0160E086E00E94A5
:1012E000EB0160E085E00E94EB0160E084E00E9499
:1012F000EB0160E083E00E94EB0160E082E00E948D
:10130000EB018AE0E816F10409F080CC60E08DE0A2
:101310000E94EB0160E08CE00E94EB0160E08BE05A
:101320000E94EB0160E08AE00E94EB0160E089E04E
:101330000E94EB0160E088E00E94EB0160E087E042
:101340000E94EB0160E086E00E94EB0160E085E036
:101350000E94EB0161E05ECE39E0E316F10489F60C
:1013600060E08DE00E94EB0160E08CE00E94EB0108
:1013700060E08BE00E94EB0160E08AE00E94EB01FC
:1013800060E089E00E94EB0160E088E00E94EB01F0
:1013900060E087E00E94EB0160E086E00E94EB01E4
:1013A00061E034CE10923A011092390149CE109288
:1013B0003801109237014FCE10923601109235014C
:1013C00055CE109234011092330168CE019709F086
:1013D000D7C0E0903901F0903A01809131019091AD
:1013E0003201E816F90609F1809104019091050196
:1013F0009C012250310922303105B8F421E0E21677
:10140000F10479F4019790930501809304010E94FF
:10141000B50260932D0170932E0180932F0190935C
:101420003001F0923201E0923101809131019091CE
:101430003201E816F90629F1809104019091050125
:101440000197F9F431E0E316F104B9F48091020157
:10145000909103011092050110920401019790935D
:101460000301809302010E94B50260932D017093E5
:101470002E0180932F0190933001F0923201E0927F
:101480003101E0903701F090380180912B0190916B
:101490002C01E816F906D9F081E0E816F10499F478
:1014A0008091020190910301019790930301809331
:1014B00002010E94B50260932D0170932E0180936A
:1014C0002F0190933001F0922C01E0922B0180913A
:1014D0000201909103011816190674F0D0920301CD
:1014E000C09202010E94B50260932D0170932E01FB
:1014F00080932F0190933001E0903501F0903601F8
:101500008091290190912A01E816F906D9F091E01D
:10151000E916F10499F48091040190910501019775
:1015200090930501809304010E94B50260932D0100
:1015300070932E0180932F0190933001F0922A0135
:10154000E092290180910401909105011816190675
:1015500074F010930501009304010E94B50260939A
:101560002D0170932E0180932F0190933001E09014
:101570003301F090340121E0E216F10409F479CE50
:101580000E94B50220912D0130912E0140912F0132
:1015900050913001621B730B840B950B6530710504
:1015A0008105910508F0A8C061E080E10E945F021A
:1015B0008FEF93E00E941902809104019091050140
:1015C0008130910509F0A1C0809102019091030141
:1015D0008130910509F0EFC09093010180930001E3
:1015E000039731F487E090E090930101809300012C
:1015F0008091020190910301049721F4B0920101BE
:10160000A092000120E030E0232B09F4A4C90E943D
:10161000F600882309F49FC90E9400009CC9E0904D
:101620003901F0903A018091310190913201E81630
:10163000F90691F031E0E316F10451F40E94B5028D
:1016400060932D0170932E0180932F0190933001B0
:10165000F0923201E0923101E0903701F0903801D0
:1016600080912B0190912C01E816F90691F081E010
:10167000E816F10451F40E94B50260932D017093B5
:101680002E0180932F0190933001F0922C01E09273
:101690002B01E0903501F090360180912901909165
:1016A0002A01E816F90691F091E0E916F10451F4E7
:1016B0000E94B50260932D0170932E0180932F013B
:1016C00090933001F0922A01E0922901E0903301D9
:1016D000F09034018091270190912801E816F906D5
:1016E00009F44ECF21E0E216F10409F4CACDF092DC
:1016F0002801E092270144CF61E080E10E945F026F
:1017000060E080E10E94EB0157CF8230910509F043
:101710005BC020910201309103012130310521F499
:1017200090930101809300012230310531F485E06E
:1017300090E09093010180930001809102019091CB
:1017400003018330910531F428E030E0309301014A
:1017500020930001049709F055CF70920101609227
:10176000000150CF20910201309103012130310559
:1017700021F490930101809300012230310531F46E
:1017800026E030E0309301012093000180910201B6
:10179000909103018330910521F490920101809290
:1017A0000001049709F02ECF8CE090E090930101A6
:1017B0008093000127CF8230910509F011CFD0929C
:1017C0000101C09200010CCF8330910559F28230A3
:1017D000910509F4B2CF83309105C1F2019709F464
:1017E00007CF10CFEDE3F1E01382128288EE93E091
:1017F000A0E0B0E084839583A683B7838CE091E07A
:101800009183808385EC90E09587848784EC90E0D9
:101810009787868780EC90E0918B808B81EC90E0BD
:10182000938B828B82EC90E0958B848B86EC90E09E
:10183000978B868B118E128E138E148E0895A1E2D3
:101840001A2EAA1BBB1BFD010DC0AA1FBB1FEE1F3A
:10185000FF1FA217B307E407F50720F0A21BB30B85
:10186000E40BF50B661F771F881F991F1A9469F701
:1018700060957095809590959B01AC01BD01CF015D
:101880000895EE0FFF1F0590F491E02D0994F89450
:02189000FFCF88
:101892000100010001003000000000002C018C005A
:0E18A200B9007901EA00C800DC000D0A000060
:107E0000112484B714BE81FFF0D085E080938100F7
:107E100082E08093C00088E18093C10086E0809377
:107E2000C20080E18093C4008EE0C9D0259A86E02C
:107E300020E33CEF91E0309385002093840096BBD3
:107E4000B09BFECF1D9AA8958150A9F7CC24DD24C4
:107E500088248394B5E0AB2EA1E19A2EF3E0BF2EE7
:107E6000A2D0813461F49FD0082FAFD0023811F036
:107E7000013811F484E001C083E08DD089C08234E0
:107E800011F484E103C0853419F485E0A6D080C0E4
:107E9000853579F488D0E82EFF2485D0082F10E0AE
:107EA000102F00270E291F29000F111F8ED06801E7
:107EB0006FC0863521F484E090D080E0DECF843638
:107EC00009F040C070D06FD0082F6DD080E0C81688
:107ED00080E7D80618F4F601B7BEE895C0E0D1E017
:107EE00062D089930C17E1F7F0E0CF16F0E7DF06D8
:107EF00018F0F601B7BEE89568D007B600FCFDCFD4
:107F0000A601A0E0B1E02C9130E011968C91119780
:107F100090E0982F8827822B932B1296FA010C0160
:107F200087BEE89511244E5F5F4FF1E0A038BF0790
:107F300051F7F601A7BEE89507B600FCFDCF97BE46
:107F4000E89526C08437B1F42ED02DD0F82E2BD052
:107F50003CD0F601EF2C8F010F5F1F4F84911BD097
:107F6000EA94F801C1F70894C11CD11CFA94CF0C13
:107F7000D11C0EC0853739F428D08EE10CD085E9AC
:107F80000AD08FE07ACF813511F488E018D01DD067
:107F900080E101D065CF982F8091C00085FFFCCF94
:107FA0009093C60008958091C00087FFFCCF809118
:107FB000C00084FD01C0A8958091C6000895E0E648
:107FC000F0E098E1908380830895EDDF803219F02E
:107FD00088E0F5DFFFCF84E1DECF1F93182FE3DFCA
:107FE0001150E9F7F2DF1F91089580E0E8DFEE27F6
:047FF000FF270994CA
:027FFE00040479
:0400000300007E007B
:00000001FF
